{
  "contractName": "Application",
  "abi": [
    {
      "constant": true,
      "inputs": [
        {
          "internalType": "uint256",
          "name": "",
          "type": "uint256"
        }
      ],
      "name": "Applications",
      "outputs": [
        {
          "internalType": "uint256",
          "name": "id",
          "type": "uint256"
        },
        {
          "internalType": "string",
          "name": "Name",
          "type": "string"
        },
        {
          "internalType": "uint256",
          "name": "Category",
          "type": "uint256"
        },
        {
          "internalType": "string",
          "name": "Description",
          "type": "string"
        },
        {
          "internalType": "string",
          "name": "Location",
          "type": "string"
        },
        {
          "internalType": "uint256",
          "name": "Amount",
          "type": "uint256"
        },
        {
          "internalType": "uint256",
          "name": "Status",
          "type": "uint256"
        }
      ],
      "payable": false,
      "stateMutability": "view",
      "type": "function"
    },
    {
      "constant": true,
      "inputs": [],
      "name": "num",
      "outputs": [
        {
          "internalType": "uint256",
          "name": "",
          "type": "uint256"
        }
      ],
      "payable": false,
      "stateMutability": "view",
      "type": "function"
    },
    {
      "constant": false,
      "inputs": [
        {
          "internalType": "string",
          "name": "_Name",
          "type": "string"
        },
        {
          "internalType": "uint256",
          "name": "_Category",
          "type": "uint256"
        },
        {
          "internalType": "string",
          "name": "_Description",
          "type": "string"
        },
        {
          "internalType": "string",
          "name": "_Location",
          "type": "string"
        },
        {
          "internalType": "uint256",
          "name": "_Amount",
          "type": "uint256"
        },
        {
          "internalType": "uint256",
          "name": "_Status",
          "type": "uint256"
        }
      ],
      "name": "addApplication",
      "outputs": [],
      "payable": false,
      "stateMutability": "nonpayable",
      "type": "function"
    },
    {
      "constant": false,
      "inputs": [
        {
          "internalType": "uint256",
          "name": "_num",
          "type": "uint256"
        },
        {
          "internalType": "string",
          "name": "_Name",
          "type": "string"
        },
        {
          "internalType": "uint256",
          "name": "_Category",
          "type": "uint256"
        },
        {
          "internalType": "string",
          "name": "_Description",
          "type": "string"
        },
        {
          "internalType": "string",
          "name": "_Location",
          "type": "string"
        },
        {
          "internalType": "uint256",
          "name": "_Amount",
          "type": "uint256"
        },
        {
          "internalType": "uint256",
          "name": "_Status",
          "type": "uint256"
        }
      ],
      "name": "setStatus",
      "outputs": [],
      "payable": false,
      "stateMutability": "nonpayable",
      "type": "function"
    },
    {
      "constant": false,
      "inputs": [
        {
          "internalType": "uint256",
          "name": "_num",
          "type": "uint256"
        }
      ],
      "name": "deleteElement",
      "outputs": [],
      "payable": false,
      "stateMutability": "nonpayable",
      "type": "function"
    }
  ],
  "bytecode": "0x608060405234801561001057600080fd5b50610bcf806100206000396000f3fe608060405234801561001057600080fd5b50600436106100575760003560e01c80634e70b1dc1461005c578063527d800a1461007a57806357305e23146101c5578063792de6f314610306578063a429f4f714610334575b600080fd5b6100646104cf565b6040518082815260200191505060405180910390f35b6101c3600480360360e081101561009057600080fd5b8101908080359060200190929190803590602001906401000000008111156100b757600080fd5b8201836020820111156100c957600080fd5b803590602001918460018302840111640100000000831117156100eb57600080fd5b9091929391929390803590602001909291908035906020019064010000000081111561011657600080fd5b82018360208201111561012857600080fd5b8035906020019184600183028401116401000000008311171561014a57600080fd5b90919293919293908035906020019064010000000081111561016b57600080fd5b82018360208201111561017d57600080fd5b8035906020019184600183028401116401000000008311171561019f57600080fd5b909192939192939080359060200190929190803590602001909291905050506104d5565b005b610304600480360360c08110156101db57600080fd5b81019080803590602001906401000000008111156101f857600080fd5b82018360208201111561020a57600080fd5b8035906020019184600183028401116401000000008311171561022c57600080fd5b9091929391929390803590602001909291908035906020019064010000000081111561025757600080fd5b82018360208201111561026957600080fd5b8035906020019184600183028401116401000000008311171561028b57600080fd5b9091929391929390803590602001906401000000008111156102ac57600080fd5b8201836020820111156102be57600080fd5b803590602001918460018302840111640100000000831117156102e057600080fd5b90919293919293908035906020019092919080359060200190929190505050610674565b005b6103326004803603602081101561031c57600080fd5b8101908080359060200190929190505050610828565b005b6103606004803603602081101561034a57600080fd5b81019080803590602001909291905050506108a3565b6040518088815260200180602001878152602001806020018060200186815260200185815260200184810384528a818151815260200191508051906020019080838360005b838110156103c05780820151818401526020810190506103a5565b50505050905090810190601f1680156103ed5780820380516001836020036101000a031916815260200191505b50848103835288818151815260200191508051906020019080838360005b8381101561042657808201518184015260208101905061040b565b50505050905090810190601f1680156104535780820380516001836020036101000a031916815260200191505b50848103825287818151815260200191508051906020019080838360005b8381101561048c578082015181840152602081019050610471565b50505050905090810190601f1680156104b95780820380516001836020036101000a031916815260200191505b509a505050505050505050505060405180910390f35b60015481565b6040518060e001604052808b81526020018a8a8080601f016020809104026020016040519081016040528093929190818152602001838380828437600081840152601f19601f82011690508083019250505050505050815260200188815260200187878080601f016020809104026020016040519081016040528093929190818152602001838380828437600081840152601f19601f82011690508083019250505050505050815260200185858080601f016020809104026020016040519081016040528093929190818152602001838380828437600081840152601f19601f820116905080830192505050505050508152602001838152602001828152506000808c815260200190815260200160002060008201518160000155602082015181600101908051906020019061060c929190610aad565b50604082015181600201556060820151816003019080519060200190610633929190610aad565b506080820151816004019080519060200190610650929190610aad565b5060a0820151816005015560c0820151816006015590505050505050505050505050565b6001600081548092919060010191905055506040518060e0016040528060015481526020018a8a8080601f016020809104026020016040519081016040528093929190818152602001838380828437600081840152601f19601f82011690508083019250505050505050815260200188815260200187878080601f016020809104026020016040519081016040528093929190818152602001838380828437600081840152601f19601f82011690508083019250505050505050815260200185858080601f016020809104026020016040519081016040528093929190818152602001838380828437600081840152601f19601f8201169050808301925050505050505081526020018381526020018281525060008060015481526020019081526020016000206000820151816000015560208201518160010190805190602001906107c1929190610aad565b506040820151816002015560608201518160030190805190602001906107e8929190610aad565b506080820151816004019080519060200190610805929190610aad565b5060a0820151816005015560c08201518160060155905050505050505050505050565b6000808281526020019081526020016000206000808201600090556001820160006108539190610b2d565b600282016000905560038201600061086b9190610b2d565b60048201600061087b9190610b2d565b6005820160009055600682016000905550506001600081548092919060019003919050555050565b6000602052806000526040600020600091509050806000015490806001018054600181600116156101000203166002900480601f0160208091040260200160405190810160405280929190818152602001828054600181600116156101000203166002900480156109555780601f1061092a57610100808354040283529160200191610955565b820191906000526020600020905b81548152906001019060200180831161093857829003601f168201915b505050505090806002015490806003018054600181600116156101000203166002900480601f0160208091040260200160405190810160405280929190818152602001828054600181600116156101000203166002900480156109f95780601f106109ce576101008083540402835291602001916109f9565b820191906000526020600020905b8154815290600101906020018083116109dc57829003601f168201915b505050505090806004018054600181600116156101000203166002900480601f016020809104026020016040519081016040528092919081815260200182805460018160011615610100020316600290048015610a975780601f10610a6c57610100808354040283529160200191610a97565b820191906000526020600020905b815481529060010190602001808311610a7a57829003601f168201915b5050505050908060050154908060060154905087565b828054600181600116156101000203166002900490600052602060002090601f016020900481019282601f10610aee57805160ff1916838001178555610b1c565b82800160010185558215610b1c579182015b82811115610b1b578251825591602001919060010190610b00565b5b509050610b299190610b75565b5090565b50805460018160011615610100020316600290046000825580601f10610b535750610b72565b601f016020900490600052602060002090810190610b719190610b75565b5b50565b610b9791905b80821115610b93576000816000905550600101610b7b565b5090565b9056fea265627a7a72315820f1fcdd07f8bcdfc8831b47fdd4b2d06503c596295308626fd4d697fcd6b03ba164736f6c63430005100032",
  "source": "//SPDX-License-Identifier: MIT\n//CS6001 Smart Contract to Store Application Data\npragma solidity ^0.5.16;\ncontract Application {\n \nstruct Application {\n  uint id;\n  string Name;\n  uint Category;\n  string Description;\n  string Location;\n  uint Amount;\n  uint Status;\n}\n \nmapping(uint => Application) public Applications;\n \nuint public num;\n \n  function addApplication(string calldata _Name, uint  _Category,\n  string calldata _Description, string calldata _Location, uint _Amount , uint  _Status) external\n  {\n    num ++;\n    Applications[num] = Application(num,_Name,_Category,_Description,_Location,_Amount,_Status);\n  }\n \n  function setStatus(uint _num, string calldata _Name, uint  _Category,\n  string calldata _Description, string calldata _Location, uint _Amount , uint  _Status) external\n  {\n    Applications[_num] = Application(_num,_Name,_Category,_Description,_Location,_Amount,_Status);\n  }\n \n  function deleteElement(uint  _num) public\n  {\n    delete Applications[_num];\n    num --;\n  }\n}\n",
  "sourcePath": "C:\\Users\\anich\\Desktop\\PROJECTS\\CrowdFunding-DApp\\DApp\\smart-contract\\contracts\\Application.sol",
  "compiler": {
    "name": "solc",
    "version": "0.5.16+commit.9c3226ce.Emscripten.clang"
  },
  "schemaVersion": "3.4.3",
  "updatedAt": "2022-03-01T14:53:04.765Z",
  "devdoc": {
    "methods": {}
  },
  "userdoc": {
    "methods": {}
  }
}